:020000040800F2
:1000000000300020E58B0008290E00082B0E0008A8
:100010002D0E00082F0E0008310E00080000000011
:10002000000000000000000000000000D1490008AE
:10003000330E000800000000714A0008D54A00088D
:10004000358C0008358C0008358C0008358C00088C
:10005000358C0008358C0008358C0008358C00087C
:10006000358C0008358C0008358C0008358C00086C
:10007000358C0008358C0008358C0008358C00085C
:10008000358C0008358C0008358C0008350E0008CA
:10009000450E0008550E0008358C0008358C000808
:1000A000358C0008650E0008750E0008358C0008B8
:1000B000850E0008358C000800000000358C000813
:1000C000358C00080000000000000000358C00089E
:1000D00000000000358C0008358C0008358C0008C5
:1000E000358C0008358C000800000000000000007E
:1000F0000000000000000000000000000000000000
:1001000000000000000000000000000000000000EF
:100110000000000000000000358C0008358C00084D
:1001200000000000000000000000000000000000CF
:1001300000000000000000000000000000000000BF
:10014000358C0008358C000800000000000000001D
:10015000000000000000000000000000000000009F
:10016000000000000000000000000000000000008F
:10017000000000000000000000000000000000007F
:0801800000000000358C0008AE
:1001900010B5054C237833B9044B13B10448AFF3C1
:1001A00000800123237010BD5002002000000000D9
:1001B000D89D000808B5034B1BB103490348AFF3B2
:1001C000008008BD0000000054020020D89D0008F7
:1001D000034613F8012B002AFBD1181A0138704787
:1001E00001F0FF01102A2BDB10F0070F08D010F8E8
:1001F000013B013A8B422DD010F0070F42B3F6D1EC
:10020000F0B441EA012141EA014122F007047FF004
:1002100000070023F0E80256083C85EA010586EA5B
:10022000010685FA47F5A3FA87F586FA47F6A5FA97
:1002300087F68EB9EED1F0BC01F0FF0102F00702A3
:1002400032B110F8013B013A83EA010313B1F8D14E
:100250000020704701387047002D06BF354603382F
:10026000073815F0010F07D1013015F4807F02BF68
:10027000013015F4C03F0130F0BC0138704700BFB9
:1002800070B54FF0FF0C4CF4E06C1CEA11541DBF2C
:100290001CEA135594EA0C0F95EA0C0F00F0DEF8F7
:1002A0002C4481EA030621EA4C5123EA4C5350EADC
:1002B000013518BF52EA033541F4801143F480132D
:1002C00038D0A0FB02CE4FF00005E1FB02E506F0BE
:1002D0000042E0FB03E54FF00006E1FB03569CF013
:1002E000000F18BF4EF0010EA4F1FF04B6F5007F19
:1002F00064F5407404D25FEA4E0E6D4146EB06068B
:1003000042EAC62141EA55514FEAC52040EA5E5013
:100310004FEACE2EB4F1FD0C88BFBCF5E06F1ED8BD
:10032000BEF1004F08BF5FEA500E50F1000041EBF4
:10033000045170BD06F0004646EA010140EA0200A1
:1003400081EA0301B4EB5C04C2BFD4EB0C0541EAC3
:10035000045170BD41F480114FF0000E013C00F3D8
:10036000AB8014F1360FDEBF002001F0004170BDFC
:10037000C4F10004203C35DA0C341BDC04F1140415
:10038000C4F1200500FA05F320FA04F001FA05F2A1
:1003900040EA020001F0004221F0004110EBD3706E
:1003A00021FA04F642EB06015EEA430E08BF20EA9A
:1003B000D37070BDC4F10C04C4F1200500FA04F33D
:1003C00020FA05F001FA04F240EA020001F00041CF
:1003D00010EBD37041F100015EEA430E08BF20EA42
:1003E000D37070BDC4F1200500FA05F24EEA020E8A
:1003F00020FA04F301FA05F243EA020321FA04F0B9
:1004000001F0004121FA04F220EA020000EBD3706F
:100410005EEA430E08BF20EAD37070BD94F0000F6F
:100420000FD101F00046400041EB010111F4801FA3
:1004300008BF013CF7D041EA060195F0000F18BF54
:10044000704703F00046520043EB030313F4801F90
:1004500008BF013DF7D043EA0603704794EA0C0F4A
:100460000CEA135518BF95EA0C0F0CD050EA410660
:1004700018BF52EA4306D1D181EA030101F00041DD
:100480004FF0000070BD50EA410606BF1046194605
:1004900052EA430619D094EA0C0F02D150EA013611
:1004A00013D195EA0C0F05D152EA03361CBF104652
:1004B00019460AD181EA030101F0004141F0FE41F1
:1004C00041F470014FF0000070BD41F0FE4141F475
:1004D000780170BD81F0004102E000BF83F000436D
:1004E00030B54FEA41044FEA430594EA050F08BFCF
:1004F00090EA020F1FBF54EA000C55EA020C7FEA93
:10050000645C7FEA655C00F0E2804FEA5454D4EB0F
:100510005555B8BF6D420CDD2C4480EA020281EAD9
:10052000030382EA000083EA010180EA020281EA11
:100530000303362D88BF30BD11F0004F4FEA013163
:100540004FF4801C4CEA113102D0404261EB410172
:1005500013F0004F4FEA03334CEA133302D05242F8
:1005600063EB430394EA050F00F0A780A4F10104B4
:10057000D5F1200E0DDB02FA0EFC22FA05F28018EE
:1005800041F1000103FA0EF2801843FA05F35941D4
:100590000EE0A5F120050EF1200E012A03FA0EFC53
:1005A00028BF4CF0020C43FA05F3C01851EBE3717D
:1005B00001F0004507D54FF0000EDCF1000C7EEB9A
:1005C00000006EEB0101B1F5801F1BD3B1F5001FD8
:1005D0000CD349085FEA30004FEA3C0C04F10104F7
:1005E0004FEA445212F5800F80F09A80BCF1004F20
:1005F00008BF5FEA500C50F1000041EB045141EAA2
:10060000050130BD5FEA4C0C404141EB0101013C6A
:1006100028BFB1F5801FE9D291F0000F04BF014659
:100620000020B1FA81F308BF2033A3F10B03B3F12B
:1006300020020CDA0C3208DD02F1140CC2F10C02BB
:1006400001FA0CF021FA02F10CE002F11402D8BF19
:10065000C2F1200C01FA02F120FA0CFCDCBF41EAE5
:100660000C019040E41AA2BF01EB0451294330BDB4
:100670006FEA04041F3C1CDA0C340EDC04F1140491
:10068000C4F1200220FA04F001FA02F340EA030068
:1006900021FA04F345EA030130BDC4F10C04C4F1AE
:1006A000200220FA02F001FA04F340EA030029468E
:1006B00030BD21FA04F0294630BD94F0000F83F4D8
:1006C000801306BF81F480110134013D4EE77FEABB
:1006D000645C18BF7FEA655C29D094EA050F08BF07
:1006E00090EA020F05D054EA000C04BF19461046E8
:1006F00030BD91EA030F1EBF0021002030BD5FEA2C
:10070000545C05D14000494128BF41F0004130BD53
:1007100014F580043CBF01F5801130BD01F00045A7
:1007200045F0FE4141F470014FF0000030BD7FEA1A
:10073000645C1ABF194610467FEA655C1CBF0B4615
:10074000024650EA013406BF52EA033591EA030F2C
:1007500041F4002130BD00BF90F0000F04BF002124
:10076000704730B54FF4806404F132044FF0000557
:100770004FF0000150E700BF90F0000F04BF0021D0
:10078000704730B54FF4806404F1320410F0004536
:1007900048BF40424FF000013EE700BF42004FEA31
:1007A000E2014FEA31014FEA02701FBF12F07F43AE
:1007B00093F07F4F81F06051704732F07F4208BF65
:1007C000704793F07F4F04BF41F40021704730B56C
:1007D0004FF4607401F0004521F000411CE700BFB8
:1007E00050EA010208BF704730B54FF000050AE03B
:1007F00050EA010208BF704730B511F0004502D53C
:10080000404261EB41014FF4806404F132045FEA3D
:10081000915C3FF4D8AE4FF003025FEADC0C18BFE6
:1008200003325FEADC0C18BF033202EBDC02C2F1D8
:10083000200300FA03FC20FA02F001FA03FE40EA6A
:100840000E0021FA02F11444BDE600BF4A0011D2A5
:1008500012F5001211D20DD56FF47873B3EB62521A
:100860000ED44FEAC12343F0004343EA505323FA26
:1008700002F070474FF00000704750EA013002D19B
:100880004FF0FF3070474FF000007047014B186881
:10089000704700BF6C02002010B504460268074B89
:1008A0009A4205D0064B1B685B68A34203D010BD7B
:1008B00000F0B6FFF6E707F043FFF8E7002C014031
:1008C000381F002072B6FEE700B591B02822002143
:1008D00006A808F0DBFB0023019302930393049323
:1008E00005930223069301220A9210220B920D9384
:1008F0004FF460130F9306A800F0A4FF80B90F23F4
:10090000019302210291002303934FF48062049229
:10091000059301A801F0E8FA20B911B05DF804FBD5
:10092000FFF7D0FFFFF7CEFF08B500F067FFFFF736
:10093000CBFF00F01FF800F0EBF800F06BF900F0CF
:10094000BBF900F0F5F9084804F0A8F901220749BD
:10095000074800F05BF901F02BFD03F0D5FD00F036
:10096000ADF803F0F3FDFEE79C0300206C020020CD
:10097000FCFF000870B588B000240394049405942B
:10098000069407941A4B5A6942F400325A615A6924
:1009900002F400320192019A5A6942F480225A61AB
:1009A0005B6903F480230293029B224602214FF0ED
:1009B000904001F085FC0F4D22460821284601F0A9
:1009C0007FFC02230393012604960594069403A951
:1009D0004FF0904001F096FB082303930496059492
:1009E000069403A9284601F08DFB08B070BD00BF36
:1009F000001002400004004810B584B002E032202C
:100A000003F040FE04F054F904F0BAF9B0F1FF3FEE
:100A1000F8D00F4CA4F89C004FF4C0410D4B18685F
:100A200004F02AFAB4F89C30ADF80E3000210091A1
:100A300002230DF10E0204F0FEFA074B1B685B69FE
:100A40005B6B002BDBD00122C3F85021D7E700BF3E
:100A50001001002010000020381F002010B504F005
:100A60008FF9B0F1FF3FFAD004460821034801F0A6
:100A70002CFC04EB840003F005FEF0E700040048C2
:100A800000B587B00A4B02930A4B03930A4B0193BC
:100A9000FFF7FCFE8DF800007D238DF802306846DC
:100AA00007F0E2FD07F008FE012003F0EBFDF9E797
:100AB0007C020020110B0008E002002008B50B4A60
:100AC00000210B4803F068FD0A4B18600A4A002118
:100AD0000A4803F061FD0A4B18600A4A00210A48DF
:100AE00003F05AFD094B186008BD00BF149E0008B2
:100AF000F909000870020020389E00085D0A00080D
:100B0000740200205C9E0008810A00087802002020
:100B100008B50F480F4B0360022343600023836036
:100B20004FF08073C3604FF4402303614FF4801390
:100B300043610123037643768376C3760377437755
:100B400000F026FA00B908BDFFF7BCFEFBE700BFC6
:100B50007C0200200064004070B588B0002303933D
:100B600004930593069307930268274B9A4201D09A
:100B700008B070BD03F5D633DA6942F00072DA616D
:100B8000DA6902F000720192019A5A6942F4003265
:100B90005A615B6903F400330293029B4FF40063D4
:100BA0000393022404940123059303260696092542
:100BB000079503A94FF0904001F0A4FA4FF4805339
:100BC00003930494002405940696079503A94FF017
:100BD000904001F097FA22460521132001F090FB86
:100BE000132001F0C5FB22460521142001F088FBEB
:100BF000142001F0BDFB22460521152001F080FBE9
:100C0000152001F0B5FBB3E70064004003680B60FA
:100C10007047000000B58DB00023089309930A9334
:100C20000B93059306930793019302930393049305
:100C300020484FF0804202603F22426083606FF0A4
:100C40000102C2600361836102F006F918BB4FF430
:100C50008053089308A9174801F05AFFF0B91548C6
:100C600002F034F9E8B900230593079305A9114868
:100C700002F066F9C0B90A2301930123029300230D
:100C8000039304930C2201A90A4801F0D1FE70B924
:100C90000DB05DF804FBFFF715FED8E7FFF712FE75
:100CA000DDE7FFF70FFEDEE7FFF70CFEE3E7FFF7F8
:100CB00009FEEDE79C03002000B589B000230493F2
:100CC0000593069307930193029303931648174ADB
:100CD00002603F22426083604FF6FF72C260036190
:100CE000836102F0B9F8A8B94FF48053049304A9C2
:100CF0000D4801F00DFF80B900230193039301A972
:100D0000094802F01DF958B9074801F0E5FB09B0A0
:100D10005DF804FBFFF7D6FDE6E7FFF7D3FDEBE751
:100D2000FFF7D0FDF0E700BF5804002000040040AA
:100D300008B50A480A4B03603F23436000238360E1
:100D40004FF47A72C26003614361836102F084F8F8
:100D500000B908BDFFF7B6FDFBE700BFE0020020C9
:100D60000048014000B58BB000230593069307931C
:100D7000089309930368B3F1804F08D0274A934240
:100D80002DD0274A934235D00BB05DF804FB03F514
:100D90000433DA6942F00102DA61DA6902F0010231
:100DA0000192019A5A6942F400325A615B6903F474
:100DB00000330293029B0923059302230693012328
:100DC000099305A94FF0904001F09CF900220521FC
:100DD0001C2001F095FA1C2001F0CAFAD4E7114B4F
:100DE000DA6942F00202DA61DB6903F0020303937D
:100DF000039BC9E70B4B9A6942F480229A619B6975
:100E000003F480230493049B002205211A2001F09F
:100E100077FA1A2001F0ACFAB6E700BF00040040F0
:100E20000048014000100240FEE7FEE7FEE7FEE753
:100E3000FEE7704708B5024800F0C3FB08BD00BFDD
:100E40007C02002008B5024800F0BBFB08BD00BFD3
:100E50007C02002008B5024800F0B3FB08BD00BFCB
:100E60007C02002008B5024801F0A6FB08BD00BFC7
:100E70001405002008B5024801F09EFB08BD00BF24
:100E8000E002002008B5024801F096FB08BD00BF53
:100E90009C03002000B583B00D4B9A6942F001021B
:100EA0009A619A6902F001020092009ADA6942F0AE
:100EB0008052DA61DB6903F080530193019B0022C9
:100EC0000F216FF0010001F01BFA03B05DF804FB85
:100ED0000010024008B500F0A3FC08BD30B589B091
:100EE0000446214B9A6942F400629A619B6903F4BB
:100EF00000630193019B02A903A801F0E5F801F04A
:100F0000CDF803461948A0FB03239B0C013B18486E
:100F1000184A026040F2E732C26043600023036176
:100F20008360836101F098FF054638B1124A0E21B3
:100F30000F4801F036FC284609B030BD0C4801F0DE
:100F400001FB05460028F1D1192001F011FA0F2C00
:100F500001D90125EAE700222146192001F0D0F944
:100F6000064B1C60E2E700BF0010024083DE1B431B
:100F700014050020002C0140D50E000804000020BC
:100F800070477047704770477047704770477047A9
:100F9000002800F0C08038B5044690F82030F3B93E
:100FA0005E4B03645E4B43645E4B83645E4BC36481
:100FB0005E4B83625E4BC3625E4B03635E4B436377
:100FC0005E4B83635E4BC3635E4B03655E4B436561
:100FD0005E4B8365C36DEBB1E36D20469847226895
:100FE000136843F00103136000F026FC05462368F4
:100FF0005A6812F0010F10D100F01EFC401B0A28A5
:10100000F5D9636A43F400336362052384F8203022
:10101000012038BD4E4BC365DEE71A6822F002029C
:101020001A6000F009FC054623685A6812F0020FA6
:101030000DD000F001FC401B0A28F5D9636A43F487
:1010400000336362052384F820300120E1E7227E2B
:10105000012A3DD01A6822F080021A60637E012BBB
:101060003BD02268136823F040031360A37E012B5A
:1010700039D02268136823F020031360E37E012B2C
:1010800037D02268136843F010031360237F012BCD
:1010900035D02268136823F008031360637F012BA7
:1010A00033D02268136823F004031360A368E26856
:1010B000134322691343626913436268013A21684A
:1010C0001343CB6100206062012384F82030A0E745
:1010D0001A6842F080021A60C0E72268136843F081
:1010E00040031360C2E72268136843F020031360D3
:1010F000C4E72268136823F010031360C6E7226870
:10110000136843F008031360C8E72268136843F0CC
:1011100004031360CAE70120704700BF358B000845
:10112000870F0008418B0008890F0008A98B000871
:10113000BD8B0008D18B0008810F0008830F0008C9
:10114000850F00088B0F00088D0F00088F0F000817
:10115000590B0008026890F82030013BDBB2012BEC
:1011600005D9436A43F4802343620120704730B4B9
:10117000D2F8003243F00103C2F800324B6903F0A9
:101180001F03012000FA03F3D2F81C026FEA030CDC
:1011900020EA0300C2F81C02C869B0B9D2F80C02F8
:1011A0000CEA0000C2F80C028C884869CD6844EA59
:1011B0000544483042F830400C8848698D6844EA5C
:1011C0000544483002EBC0004460C86901281BD0C8
:1011D000886980BBD2F804020CEA0000C2F804025D
:1011E000086970BBD2F814020CEA0000C2F81402BD
:1011F000096A01292BD0D2F8003223F00103C2F88A
:101200000032002030BC7047D2F80C021843C2F8FC
:101210000C028C8848690D6844EA0544483042F85D
:1012200030408C8948698D6844EA0544483002EBB7
:10123000C0004460CCE7D2F804021843C2F80402AC
:10124000CEE7D2F814021843C2F81402D0E7D2F85D
:101250001C120B43C2F81C32CDE770B5044690F85F
:101260002050EDB2012D06D0436A43F400234362BF
:101270000125284670BD022380F8203002681368DB
:1012800023F00103136000F0D7FA064623685B6879
:1012900013F0010F0CD000F0CFFA831B0A2BF5D905
:1012A000636A43F400336362052384F82030E0E787
:1012B00000256562DDE738B5044690F82030DBB2E2
:1012C000022B05D0436A43F480134362012038BDEA
:1012D0000268136843F00103136000F0ADFA05469D
:1012E00023685A6812F0010F0DD100F0A5FA431BD4
:1012F0000A2BF5D9636A43F400336362052384F84B
:1013000020300120E3E71A6822F002021A6001236C
:1013100084F820300020DAE730B590F820C0046867
:10132000A4680CF1FF3C5FFA8CFCBCF1010F62D8A1
:1013300014F0E05F59D0C4F3016C012404FA0CF4FA
:101340001C608B68002B3DD10D68CB68046843EAB4
:1013500045550CF118031B01E55003680C690CF1AD
:10136000180E03EB0E135C600B7D012B35D0D17989
:1013700093791B0443EA0163517943EA0123147909
:101380000168234301EB0C11C1F88C31D1789378BB
:101390001B0443EA0163517843EA01231178026890
:1013A0000B4302EB0C12C2F8883102680CF1180CE6
:1013B0004FEA0C1C52F80C3043F0010342F80C3099
:1013C00000201DE04C6843EAC403CC6823430CF1C1
:1013D0001804240105682B51BFE7036803EB0E13C3
:1013E000596841F480715960C1E7436A43F40013BE
:1013F0004362012004E0436A43F4802343620120F6
:1014000030BD90F82030013BDBB2012B01D9002028
:1014100070470368986810F0806000D001209A68D7
:1014200012F0006F00D001309B6813F0805FEFD0A6
:101430000130704790F820C00CF1FF3C5FFA8CFC43
:10144000BCF1010F00F2A58030B451B90468E46822
:1014500014F0030F10D1436A43F4001343620120D8
:101460007EE00468246914F0030F05D1436A43F455
:1014700000134362012073E0056801F11B0424019D
:101480002C5904F004049460002C6BD1056801F120
:101490001B0424012C59640D1460046801F11B0C19
:1014A0004FEA0C1C54F80C4004F00204D4600468A9
:1014B000A444DCF8045015F0080F5BD00824146134
:1014C000056801F11B0C05EB0C156D68C5F30725CC
:1014D0009561046804EB0C146468240C5461026880
:1014E00002EB0112D2F8B8211A70026802EB011265
:1014F000D2F8B821C2F307225A70026802EB011237
:10150000D2F8B821C2F307429A70026802EB0112C6
:10151000D2F8B821120EDA70026802EB0112D2F88A
:10152000BC211A71026802EB0112D2F8BC21C2F38D
:1015300007225A71026802EB0112D2F8BC21C2F3F1
:1015400007429A71026802EB0112D2F8BC21120E16
:10155000DA71C1B90268D36843F02003D360002078
:1015600030BC7047056801F11B0424012C59E408C4
:10157000546092E701F11B0504EB0514646804F064
:101580000F0414619CE70268136943F020031361A0
:10159000E5E7436A43F4802343620120704790F8F3
:1015A0002030013BDBB2012B05D9436A43F4802391
:1015B000436201207047026853691943516100205A
:1015C00070472DE9F84F044603685D69D3F804803D
:1015D0009F68D3F80CB0D3F810A0D3F8189015F08A
:1015E000010627D017F0010608D001229A6017F0F3
:1015F000020F00F0AC80836A9847002617F4807FC2
:101600000AD023684FF480729A6017F4007F00F0CC
:10161000AD80E36A2046984717F4803F0AD02368DC
:101620004FF480329A6017F4003F00F0AF80236BD4
:101630002046984715F0080F07D01BF0100F04D074
:1016400046F4007623681022DA6015F0040F08D003
:101650001BF0080F05D023680822DA60636C20466F
:10166000984715F0020F07D02368DB6813F0030FCB
:1016700002D0236C2046984715F0400F07D01AF08F
:10168000100F04D046F48066236810221A6115F00A
:10169000200F08D01AF0080F05D0236808221A611D
:1016A000E36C2046984715F0100F07D023681B699C
:1016B00013F0030F02D0A36C2046984715F4003FA7
:1016C00008D018F0100F05D0236810225A60236D3F
:1016D0002046984715F4803F08D018F0080F05D031
:1016E000236808225A60636D2046984715F4004F1E
:1016F00069D018F0040F63D015F4807F04D019F07E
:10170000010F01D046F0010615F4007F04D019F056
:10171000020F01D046F0020615F4806F04D019F0D4
:10172000040F01D046F0040615F4006F48D019F0FC
:10173000700945D0B9F1400F5AD04DD8B9F1200FFA
:1017400053D0B9F1300F31D146F0200633E017F015
:10175000040F05D117F0080605D1436B98474DE7F4
:101760004FF400664AE74FF4805647E717F4806F5E
:1017700002D046F400564FE717F4006F02D046F44B
:10178000804649E7A36B2046984745E717F4802F2A
:1017900002D046F400464DE717F4002F02D046F47D
:1017A000803647E7E36B2046984743E7B9F1100FCF
:1017B00001D146F008062268936923F07003936113
:1017C000236804225A602EB1636A1E436662A36DC9
:1017D00020469847BDE8F88FB9F1500F0BD0B9F10A
:1017E000600FE8D146F48076E5E746F01006E2E7C0
:1017F00046F04006DFE746F08006DCE708B5074A1A
:10180000136843F010031360032000F067FD052008
:10181000FFF764FBFFF73EFB002008BD00200240FD
:10182000034A1168034B1B780B441360704700BFD9
:10183000D005002000000020014B1868704700BF51
:10184000D0050020002800F0018370B582B0044666
:10185000036813F0010F3BD0B54B5B6803F00C033A
:10186000042B1ED0B24B5B6803F00C03082B13D083
:101870006368B3F5803F68D0002B40F0928003F19D
:10188000804303F504331A6822F480321A601A6820
:1018900022F480221A605DE0A54B5B6813F4803F60
:1018A000E6D04FF4003393FAA3F3A14B19684FF439
:1018B000003393FAA3F3B3FA83F303F01F03012277
:1018C00002FA03F30B4203D06368002B00F0C082DE
:1018D000236813F0020F00F0C580954B5B6813F08E
:1018E0000C0F00F09C80924B5B6803F00C03082BFC
:1018F00000F08F802369002B00F0F280012292FA21
:10190000A2F3B3FA83F303F1845303F584139B002A
:101910001A60FFF791FF0546022393FAA3F3844B65
:101920001968022393FAA3F3B3FA83F303F01F03B6
:10193000012202FA03F30B4240F0C380FFF77CFF61
:10194000401B0228E8D903208BE2794A136843F44C
:1019500080331360764AD36A23F00F03A1680B43E8
:10196000D3626368002B36D0FFF766FF05464FF45D
:10197000003393FAA3F36E4B19684FF4003393FAD4
:10198000A3F3B3FA83F303F01F03012202FA03F374
:101990000B429DD1FFF750FF401B6428E7D903207D
:1019A0005FE2B3F5A02F09D0614B1A6822F48032B0
:1019B0001A601A6822F480221A60CBE703F1804390
:1019C000A3F53C331A6842F480221A601A6842F484
:1019D00080321A60BEE7FFF72FFF05464FF4003351
:1019E00093FAA3F3524B19684FF4003393FAA3F31D
:1019F000B3FA83F303F01F03012202FA03F30B424D
:101A00003FF466AFFFF718FF401B6428E6D90320B8
:101A100027E2474B5B6813F4803F7FF46BAF0223F0
:101A200093FAA3F3424B1968022393FAA3F3B3FA90
:101A300083F303F01F03012202FA03F30B4203D0E6
:101A40002369934240F006823948036823F0F80383
:101A50006169F82292FAA2F2B2FA82F201FA02F273
:101A600013430360236813F0080F00F08D80A3690F
:101A7000002B61D0012191FAA1F2B2FA82F22D4B32
:101A800013449B001960FFF7D7FE0546022393FA23
:101A9000A3F293FAA3F293FAA3F2254A516A93FAB6
:101AA000A3F3B3FA83F303F01F03012202FA03F353
:101AB0000B4269D1FFF7C0FE401B0228E6D9032084
:101AC000CFE11B48036823F0F8036169F82292FA1A
:101AD000A2F2B2FA82F201FA02F213430360C1E702
:101AE000012393FAA3F3B3FA83F303F1845303F5C9
:101AF00084139B0000221A60FFF79EFE0546022316
:101B000093FAA3F30A4B1968022393FAA3F3B3FAE7
:101B100083F303F01F03012202FA03F30B42A1D067
:101B2000FFF78AFE401B0228E9D9032099E100BF94
:101B30000010024020819010012292FAA2F2B2FA23
:101B400082F2B74B13449B0000221A60FFF774FE29
:101B50000546022393FAA3F293FAA3F293FAA3F2AF
:101B6000B04A516A93FAA3F3B3FA83F303F01F0365
:101B7000012202FA03F30B4206D0FFF75DFE401B81
:101B80000228E6D903206CE1236813F0040F00F06B
:101B9000A980A44BDB6913F0805F20D1A14BDA69E7
:101BA00042F08052DA61DB6903F080530193019BBC
:101BB00001259D4B1B6813F4807F12D0E368012B35
:101BC00023D073BB03F1804303F504331A6A22F078
:101BD00001021A621A6A22F004021A621AE000254F
:101BE000E7E7914A136843F480731360FFF724FE1C
:101BF00006468D4B1B6813F4807FDFD1FFF71CFE78
:101C0000801B6428F5D903202BE1864A136A43F030
:101C100001031362E368002B3CD0FFF70DFE06467C
:101C20002BE0052B09D07F4B1A6A22F001021A62C1
:101C30001A6A22F004021A62ECE77A4B1A6A42F03E
:101C400004021A621A6A42F001021A62E2E7754B54
:101C5000196A022393FAA3F3B3FA83F303F01F0381
:101C6000012202FA03F319423BD1FFF7E5FD801B85
:101C700041F28833984200F2EF80022393FAA3F2F4
:101C800093FAA3F3002BE2D1022393FAA3F3654B5B
:101C9000596ADEE7FFF7D0FD064615E0614B196A89
:101CA000022393FAA3F3B3FA83F303F01F03012291
:101CB00002FA03F3194214D0FFF7BEFD801B41F274
:101CC0008833984200F2CA80022393FAA3F293FA6F
:101CD000A3F3002BE2D1022393FAA3F3514B596AE9
:101CE000DEE7B5BBE369002B00F0BA804D4A5268CD
:101CF00002F00C02082A00F09980022B2FD04FF03E
:101D0000807393FAA3F3B3FA83F303F1845303F5D7
:101D100084139B0000221A60FFF78EFD04464FF0EB
:101D2000007393FAA3F33F4B19684FF0007393FAD3
:101D3000A3F3B3FA83F303F01F03012202FA03F3C0
:101D400019426BD0FFF778FD001B0228E7D903206A
:101D500087E0344AD36923F08053D361C2E74FF060
:101D6000807393FAA3F3B3FA83F303F1845303F577
:101D700084139B0000221A60FFF75EFD05464FF0BA
:101D8000007393FAA3F3274B19684FF0007393FA8B
:101D9000A3F3B3FA83F303F01F03012202FA03F360
:101DA000194206D0FFF748FD401B0228E7D903205F
:101DB00057E01C494B6823F47413626A206A02439B
:101DC00013434B604FF0807393FAA3F3B3FA83F39A
:101DD00003F1845303F584139B0001221A60FFF77B
:101DE0002BFD04464FF0007393FAA3F30D4B1968D3
:101DF0004FF0007393FAA3F3B3FA83F303F01F03D6
:101E0000012202FA03F3194206D1FFF715FD001B68
:101E10000228E7D9032024E0002022E0002020E06F
:101E2000208190100010024000700040012B1AD059
:101E3000104B5B6803F48031226A914215D103F4A0
:101E40007013626A934212D100200AE001207047A9
:101E5000012006E0012004E0032002E0032000E06E
:101E6000002002B070BD0120FBE70120F9E701204E
:101E7000F7E700BF00100240164B5B6803F00C024E
:101E8000082A01D01448704703F470114FF47012FF
:101E900092FAA2F2B2FA82F221FA02F20F49885CB7
:101EA0000C4AD26A02F00F020F2191FAA1F1B1FAA5
:101EB00081F1CA400A498A5C13F4803F05D0064B81
:101EC000B3FBF2F303FB00F07047064B03FB00F09B
:101ED000704700BF0010024000127A00809E000888
:101EE000909E000800093D00002800F0BE8070B5FB
:101EF0000D460446614B1B6803F007038B420BD26F
:101F00005E4A136823F007030B431360136803F062
:101F100007038B4240F0AB80236813F0020F06D01A
:101F2000574A536823F0F003A1680B4353602368BA
:101F300013F0010F5AD06368012B2DD0022B40D033
:101F4000022292FAA2F24E4A1068022292FAA2F2F9
:101F5000B2FA82F202F01F02012101FA02F21042EB
:101F600000F0878046494A6822F0030213434B6021
:101F7000FFF762FC0646424B5B6803F00C036268A5
:101F8000B3EB820F32D0FFF757FC801B41F288334E
:101F90009842F0D9032067E04FF4003292FAA2F29F
:101FA000374A10684FF4003292FAA2F2B2FA82F283
:101FB00002F01F02012101FA02F20242D2D10120F5
:101FC00052E04FF0007292FAA2F22D4A10684FF0E0
:101FD000007292FAA2F2B2FA82F202F01F0201211A
:101FE00001FA02F21042BDD101203DE0234B1B68F3
:101FF00003F00703AB420AD9204A136823F0070312
:102000002B431360136803F00703AB4233D12368FB
:1020100013F0040F06D01A4A536823F4E063E16812
:102020000B435360236813F0080F07D0144A53681A
:1020300023F46053216943EAC1035360FFF71CFF97
:102040000F4B5B6803F0F003F02292FAA2F2B2FAAF
:1020500082F2D3400B4AD35CD8400B4B18600B4B39
:102060001868FEF73BFF002070BD0120704701207B
:10207000FAE70120F8E70120F6E700BF0020024060
:1020800000100240A09E000808000020040000206C
:10209000014B1868704700BF0800002008B5FFF723
:1020A000F7FF074B5B6803F460534FF4605292FAFA
:1020B000A2F2B2FA82F2D340024AD35CD84008BD01
:1020C00000100240B09E00080F2303600B4B5A68BB
:1020D00002F0030242605A6802F0F00282605A681D
:1020E00002F4E062C2605B68DB0803F4E063036152
:1020F000034B1B6803F007030B607047001002409E
:1021000000200240F0B583B0002362E085685E00E5
:102110000324B44025EA0405CC68B4402C43846011
:10212000446824EA0C0C4C68C4F300149C4044EA54
:102130000C0444605EE0DD08083550F8256003F0CB
:1021400007044FEA840C0F2404FA0CF426EA040E68
:102150000C6904FA0CF444EA0E0440F8254060E0EF
:10216000032400E0002404FA0EF42C430CF1020CCA
:102170004F4D45F82C404F4CA568D44325EA020644
:102180004F6817F4801F01D042EA0506494DAE6042
:10219000ED6804EA05064F6817F4001F01D042EA13
:1021A0000506444DEE606D6804EA05064F6817F4B5
:1021B000003F01D042EA05063E4D6E602D682C407E
:1021C0004E6816F4803F01D042EA0504394A146093
:1021D00001330A6832FA03F468D04FF0010C0CFAAC
:1021E00003FC1CEA0202F3D04C6804F00304013C37
:1021F000012C8BD94C6804F00304032C0CD0C46868
:102200005D004FF0030C0CFA05FC24EA0C0C8C6802
:10221000AC4044EA0C04C4604C6804F00304022C93
:1022200089D004684FEA430E4FF0030C0CFA0EFC01
:1022300024EA0C0C4C6804F0030404FA0EF444EA9B
:102240000C0404604C6814F4403FC1D01A4CA569DA
:1022500045F00105A561A46904F001040194019C05
:102260004FEA930C0CF10205114C54F8255003F081
:1022700003044FEA840E0F2404FA0EF425EA040541
:10228000B0F1904F3FF46EAF0C4CA0420AD004F571
:102290008064A04208D004F58064A0423FF460AF9F
:1022A000052460E701245EE702245CE703B0F0BD8B
:1022B00000000140000401400010024000040048FA
:1022C0000AB18161704781627047436901EA030284
:1022D00021EA030141EA024181617047074AD3685C
:1022E00023F4E0631B041B0C000200F4E0600343D2
:1022F00043F0BF6343F40033D360704700ED00E068
:1023000000B5194BDB68C3F30223C3F1070CBCF122
:10231000040F28BF4FF0040C03F1040EBEF1060FAA
:1023200018D9033B4FF0FF3E0EFA0CFC21EA0C01DA
:1023300099400EFA03F322EA0303194300280BDB4A
:102340000901C9B200F1604000F5614080F8001356
:102350005DF804FB0023E5E700F00F000901C9B2B6
:10236000024B1954F4E700BF00ED00E014ED00E06B
:10237000002807DB00F01F02400901239340024AB6
:1023800042F82030704700BF00E100E0BFF34F8FFC
:102390000549CA6802F4E062044B1343CB60BFF303
:1023A0004F8F00BFFDE700BF00ED00E00400FA051D
:1023B000034A136943F0800313610020704700BF94
:1023C0000020024070477047704770477047704761
:1023D00070477047704710B4036A046A24F0010420
:1023E0000462846924F0F00C4CEA021223F00A0320
:1023F0000B43826103625DF8044B704730B4046A9A
:1024000024F0100404628469056A24F4407C4CEAD8
:10241000022C2CF4704C1B039BB243EA0C0325F0F6
:10242000A005090101F0A00129438361016230BCCC
:10243000704710B4046A24F0100404628469036ACB
:1024400024F4704C4CEA023223F0A00343EA011357
:10245000826103625DF8044B704730B4046A24F46F
:1024600080740462C469056A24F0030C4CEA020C0F
:102470002CF0F00C1B01DBB243EA0C0325F42065C1
:10248000090201F420612943C361016230BC704735
:1024900030B4046A24F480540462C469056A24F4E4
:1024A000407C4CEA022C2CF4704C1B039BB243EA98
:1024B0000C0325F42045090301F420412943C3619D
:1024C000016230BC7047836823F070030B4343F014
:1024D000070383607047000090F83D30DBB2012BAA
:1024E00025D1022380F83D300368144A934210D06E
:1024F000B3F1804F0DD0A2F59432934209D002F58A
:102500009E32934205D01A6842F001021A60002000
:10251000704799680A4A0A40062A0AD0B2F5803FF5
:1025200009D01A6842F001021A60002070470120A9
:102530007047002070470020704700BF002C01400A
:102540000700010090F83D30DBB2012B2AD10223B5
:1025500080F83D300268D36843F00103D36003681C
:10256000134A934210D0B3F1804F0DD0A2F59432AC
:10257000934209D002F59E32934205D01A6842F088
:1025800001021A600020704799680A4A0A40062A28
:102590000AD0B2F5803F09D01A6842F001021A60F1
:1025A00000207047012070470020704700207047CE
:1025B000002C01400700010010B5044603681A69A9
:1025C00012F0020F13D0DA6812F0020F0FD06FF082
:1025D00002021A610123037703689B6913F0030F5A
:1025E00000F0A380D0F89430984700232377236825
:1025F0001A6912F0040F14D0DA6812F0040F10D028
:102600006FF004021A610223237723689B6913F495
:10261000407F00F09280D4F8943020469847002301
:10262000237723681A6912F0080F14D0DA6812F0C1
:10263000080F10D06FF008021A6104232377236873
:10264000DB6913F0030F00F08180D4F8943020464A
:1026500098470023237723681A6912F0100F13D0CC
:10266000DA6812F0100F0FD06FF010021A61082311
:1026700023772368DB6913F4407F70D0D4F894305B
:10268000204698470023237723681A6912F0010F28
:102690000AD0DA6812F0010F06D06FF001021A6159
:1026A000D4F884302046984723681A6912F0800FC6
:1026B0000AD0DA6812F0800F06D06FF080021A613B
:1026C000D4F8B4302046984723681A6912F4807F02
:1026D0000AD0DA6812F0800F06D06FF480721A61A7
:1026E000D4F8B8302046984723681A6912F0400F92
:1026F0000AD0DA6812F0400F06D06FF040021A617B
:10270000D4F88C302046984723681A6912F0200FBD
:102710000AD0DA6812F0200F06D06FF020021A619A
:10272000D4F8AC302046984710BDD0F89C3098477C
:10273000D4F8A0302046984757E7D4F89C3020467C
:102740009847D4F8A0302046984768E7D4F89C30E2
:1027500020469847D4F8A0302046984779E7D4F827
:102760009C3020469847D4F8A0302046984789E707
:102770000C2914D8DFE801F0071313130A131313FD
:102780000D13131310000368586B70470368986BA0
:1027900070470368D86B70470368186C7047002057
:1027A0007047002A00F0C88010B4844690F83D308D
:1027B000D8B2012812D09CF83D3003F0FF00002B66
:1027C00040F0BC800D2900F2BD80DFE801F08A8E68
:1027D0009194979A9DA0A3A6A9ACAFB21B2900F231
:1027E000AE80DFE801F00E12161A1E22262A2E32C3
:1027F000363A3E42464A4E52565A5E62666A6E7299
:10280000767ACCF84C20084699E0CCF8502000208D
:1028100095E0CCF85420002091E0CCF8582000201E
:102820008DE0CCF85C20002089E0CCF8602000200E
:1028300085E0CCF86420002081E0CCF868200020FE
:102840007DE0CCF86C20002079E0CCF870200020EE
:1028500075E0CCF87420002071E0CCF878200020DE
:102860006DE0CCF87C20002069E0CCF880200020CE
:1028700065E0CCF88420002061E0CCF888200020BE
:102880005DE0CCF88C20002059E0CCF890200020AE
:1028900055E0CCF89420002051E0CCF8982000209E
:1028A0004DE0CCF89C20002049E0CCF8A02000208E
:1028B00045E0CCF8A420002041E0CCF8A82000207E
:1028C0003DE0CCF8AC20002039E0CCF8B02000206E
:1028D00035E0CCF8B420002031E0CCF8B82000205E
:1028E0002DE0CCF84C20084629E0CCF8502026E01A
:1028F000CCF8542023E0CCF8582020E0CCF85C2021
:102900001DE0CCF860201AE0CCF8642017E0CCF889
:10291000682014E0CCF86C2011E0CCF870200EE0B8
:10292000CCF874200BE0CCF8782008E0CCF87C20C0
:1029300005E0CCF8802002E00120704701205DF81E
:10294000044B70470120FAE70368224A904206D000
:10295000B0F1804F03D0A2F59432904203D123F01E
:1029600070034A6813431B4A904212D0B0F1804F63
:102970000FD0A2F5943290420BD002F59E329042D5
:1029800007D002F58062904203D002F58062904247
:1029900003D123F44073CA68134323F080034A69C8
:1029A000134303608B68C3620B688362094B9842D0
:1029B0000BD003F5A053984207D003F580639842EB
:1029C00003D003F58063984201D10B6903630123AF
:1029D00043617047002C014070B4046A24F0010484
:1029E00004628469056A114EB0420DD0B0F1804F87
:1029F0000AD0A6F59436B04206D006F59E36B0420F
:102A000002D044F0010202E024F00304224322F049
:102A1000F0021B01DBB2134325F00A0201F00A01A8
:102A200011438361016270BC704700BF002C0140FC
:102A300038B590F83C30012B5AD004460D4601239E
:102A400080F83C3052B1042A1AD0082A2BD00C2A24
:102A50003BD00120002384F83C3038BDCB684A6865
:102A600009680068FFF7B8FF2268936923F00C0338
:102A7000936122689369A9680B4393610020E9E799
:102A8000CB684A6809680068FFF7B8FC2268936958
:102A900023F44063936122689369A96843EA0123A0
:102AA00093610020D6E7CB684A6809680068FFF7A1
:102AB000D4FC2268D36923F00C03D3612268D36964
:102AC000A9680B43D3610020C4E7CB684A68096852
:102AD0000068FFF7DDFC2268D36923F44063D3610B
:102AE0002268D369A96843EA0123D3610020B1E7D2
:102AF0000220B2E710B4846824F47F4C42EA032237
:102B00000A4342EA0C0282605DF8044B7047000001
:102B100090F83C30012B76D010B50446012380F8A4
:102B20003C30022380F83D3002689068374B034008
:102B300093600B68602B4CD029D8402B54D00CD913
:102B4000502B22D1CA6849682068FFF744FC502105
:102B50002068FFF7B8FC002005E0202B0DD009D934
:102B6000302B0AD00120012384F83D30002384F863
:102B70003C3010BD0BB1102B05D119462068FFF772
:102B8000A2FC0020EFE70120EDE70120EBE7B3F521
:102B9000805F34D0B3F5005F0CD1CB684A68896898
:102BA0002068FFF7A7FF2268936843F4804393608F
:102BB0000020D8E7702B24D1CB684A688968206848
:102BC000FFF798FF2268936843F077039360002033
:102BD000C9E7CA6849682068FFF72BFC60212068B4
:102BE000FFF771FC0020BEE7CA6849682068FFF75C
:102BF000F2FB40212068FFF766FC0020B3E70020CD
:102C0000B1E70120AFE70220704700BF8800FEFF58
:102C100001F01F01012303FA01FC036A23EA0C03FC
:102C20000362036A02FA01F10B430362704700007A
:102C300010B504460B4619BB90F83E00C0B2002BFD
:102C40003AD194F84420D2B2012840F0B080012A51
:102C500040F0AE80002B3FD1022184F83E10002BC3
:102C600056D1022184F844100C2B00F2A280DFE838
:102C700003F05FA0A0A07EA0A0A084A0A0A08A00D6
:102C8000042909D008290BD00C290DD010290FD008
:102C900090F84300C0B2D2E790F83F00C0B2CEE750
:102CA00090F84000C0B2CAE790F84100C0B2C6E751
:102CB00090F84200C0B2C2E7042B05D0082B07D021
:102CC00094F84720D2B2BFE794F84520D2B2BBE7D0
:102CD00094F84620D2B2B7E7042B09D0082B0BD0CA
:102CE0000C2B0DD0102B0FD0022184F84310B6E727
:102CF000022184F83F10B2E7022184F84010AEE7C9
:102D0000022184F84110AAE7022184F84210A6E7C4
:102D1000042B05D0082B07D0022184F84710A3E725
:102D2000022184F845109FE7022184F846109BE7B2
:102D30002168CA6842F00202CA600122194620686E
:102D4000FFF766FF23681E4A934222D0B3F1804FFB
:102D50001FD0A2F5943293421BD002F59E329342CB
:102D600017D01A6842F001021A60002020E02168A2
:102D7000CA6842F00402CA60DFE72168CA6842F00C
:102D80000802CA60D9E72168CA6842F01002CA6026
:102D9000D3E799680B4A0A40062A0CD0B2F5803F67
:102DA0000BD01A6842F001021A60002000E00120F6
:102DB00010BD1046FCE70020FAE70020F8E700BF4E
:102DC000002C014007000100154BC0F88430154B62
:102DD000C0F88830144BC0F88C30144BC0F89030D9
:102DE000134BC0F89430134BC0F89830124BC0F816
:102DF0009C30124BC0F8A030114BC0F8A430114BDE
:102E0000C0F8A830104BC0F8AC30104BC0F8B03050
:102E10000F4BC0F8B4300F4BC0F8B830704700BF4C
:102E200099080008C7230008D1230008D32300080D
:102E3000E14C0008CB230008C9230008CD2300087B
:102E4000CF230008D5230008B92F0008BB2F0008A6
:102E5000BD2F0008BF2F0008A0B310B5044690F89E
:102E60003D3013B3022384F83D30214651F8040B62
:102E7000FFF76AFD012384F8483084F83E3084F877
:102E80003F3084F8403084F8413084F8423084F890
:102E9000433084F8443084F8453084F8463084F870
:102EA000473084F83D30002010BD80F83C30FFF7FB
:102EB0008BFFE36C1BB1E36C20469847D2E7024BD3
:102EC000E364F8E701207047650D0008A0B310B572
:102ED000044690F83D3013B3022384F83D30214678
:102EE00051F8040BFFF730FD012384F8483084F8D3
:102EF0003E3084F83F3084F8403084F8413084F824
:102F0000423084F8433084F8443084F8453084F803
:102F1000463084F8473084F83D30002010BD80F8FA
:102F20003C30FFF751FF636D1BB1636D204698473E
:102F3000D2E7024B6365F8E701207047C52300081C
:102F400090F83C30012B33D030B4012380F83C3072
:102F5000022380F83D30026853689468154DAA42F8
:102F600021D023F070030D682B4353600368114A8E
:102F700093420AD0B3F1804F07D0A2F59432934226
:102F800003D002F59E32934204D124F080048A6873
:102F900014439C60012380F83D30002380F83C30CE
:102FA000184630BC704723F470034D682B43D8E7B4
:102FB00002207047002C01407047704770477047EF
:102FC000034AD2F8883043F47003C2F8883070475F
:102FD00000ED00E000F1080343604FF0FF32826033
:102FE000C3600361002303607047002303617047DF
:102FF00043684B609A688A60516099600861036811
:1030000001330360704730B40D68B5F1FF3F11D054
:1030100000F108031C465B681A68AA42FAD9636883
:103020004B6099608C6061600861036801330360E4
:1030300030BC70470469F2E70369416882688A60BE
:10304000416851605A68824206D0002202611A68C3
:10305000013A1A601868704782685A60F5E710B53F
:10306000044601F0C7FCA26BE36B9A4204D0002433
:1030700001F0E2FC204610BD0124F9E710B504463A
:1030800001F0B8FCA36B23B9012401F0D5FC204664
:1030900010BD0024F9E770B504461546866B026C36
:1030A0005AB903681BB100200136A66370BD4068A1
:1030B00000F0CAFF00236360F6E76DB9806805F091
:1030C000BDFF226CA3681344A3606268934219D3C6
:1030D0002368A3602846E7E7C06805F0AFFF226CCD
:1030E0005142E3689B1AE3602268934202D263680C
:1030F0000B44E360022D01D00020D5E726B1013E4C
:103100000020D1E72846CFE70020CDE70346026C38
:103110006AB110B50846D9681144D9605C68A1420B
:1031200001D31968D960D96805F088FF10BD7047D0
:1031300038B5054601F05EFC95F8454064B201E003
:10314000013C64B2002C0ADD6B6A43B105F1240036
:1031500000F0D0FE0028F3D000F060FFF0E7FF237E
:1031600085F8453001F068FC01F044FC95F84440D6
:1031700064B201E0013C64B2002C0ADD2B6943B16A
:1031800005F1100000F0B6FE0028F3D000F046FF75
:10319000F0E7FF2385F8443001F04EFC38BD38B528
:1031A000E0B10D46044601F025FC2368E26B216C7A
:1031B00001FB023060600020A063A360013A02FBC3
:1031C0000133E360FF2384F8443084F84530FDB9CF
:1031D000236963B901F030FC012038BD4FF0500382
:1031E00083F31188BFF36F8FBFF34F8FFEE704F1B6
:1031F000100000F07FFE0028ECD04FF0E0234FF0ED
:103200008052C3F8042DBFF34F8FBFF36F8FE1E7F8
:1032100004F11000FFF7DEFE04F12400FFF7DAFEF0
:10322000D8E738B51D46049C0B4649B92460E063D5
:10323000236401212046FFF7B2FF84F84C5038BDCB
:103240002260F4E740B94FF0500383F31188BFF3D5
:103250006F8FBFF34F8FFEE710B584B01C468446D6
:1032600053B192B189B94FF0500383F31188BFF382
:103270006F8FBFF34F8FFEE74FF0500383F311883A
:10328000BFF36F8FBFF34F8FFEE76AB150230393F5
:10329000039B502B13D04FF0500383F31188BFF3DF
:1032A0006F8FBFF34F8FFEE70029EFD04FF0500331
:1032B00083F31188BFF36F8FBFF34F8FFEE70123B6
:1032C00084F8463000949DF818306046FFF7A9FF57
:1032D000204604B010BDF0B585B0019288B10F460C
:1032E0001D460446B1B1022D20D1E36B012B1DD048
:1032F0004FF0500383F31188BFF36F8FBFF34F8FED
:10330000FEE74FF0500383F31188BFF36F8FBFF3D5
:103310004F8FFEE7036C002BE5D04FF0500383F393
:103320001188BFF36F8FBFF34F8FFEE700F07CFE75
:10333000064658B9019B002B48D04FF0500383F349
:103340001188BFF36F8FBFF34F8FFEE700263DE07C
:103350002A4639462046FFF79EFE636A7BB948B18C
:103360004FF0E0234FF08052C3F8042DBFF34F8F8E
:10337000BFF36F8F01F060FB012005B0F0BD04F1D9
:10338000240000F0B7FD0028F4D04FF0E0234FF008
:103390008052C3F8042DBFF34F8FBFF36F8FE9E75F
:1033A00001F04AFB0020E8E702A800F0E9FD012651
:1033B00019E0002384F8443021E0002384F84530EC
:1033C00023E02046FFF7B4FE00F074FC01F012FB8E
:1033D000A26BE36B9A42BBD3022DB9D0019B002BA9
:1033E000DED0002EE0D001F027FB00F0C9FB01F099
:1033F00001FB94F8442052B2B2F1FF3FD9D094F8C7
:10340000452052B2B2F1FF3FD7D001F015FB01A920
:1034100002A800F0C1FDD8B92046FFF720FE002821
:10342000CFD0019904F1100000F030FD2046FFF7E5
:103430007FFE00F03FFC0028C8D14FF0E0234FF0A2
:103440008052C3F8042DBFF34F8FBFF36F8FBDE7DA
:103450002046FFF76DFE00F02DFC00208DE72DE9E2
:10346000F84390B10F4616461C460546B1B1022CF2
:1034700020D1EB6B012B1DD04FF0500383F311884B
:10348000BFF36F8FBFF34F8FFEE74FF0500383F30F
:103490001188BFF36F8FBFF34F8FFEE7036C002BD4
:1034A000E5D04FF0500383F31188BFF36F8FBFF364
:1034B0004F8FFEE701F0C4FBEFF311894FF050038B
:1034C00083F31188BFF36F8FBFF34F8FAA6BEB6B42
:1034D0009A4206D3022C04D0002089F31188BDE85B
:1034E000F88395F845804FFA88F8224639462846F1
:1034F000FFF7D1FDB8F1FF3F06D008F101035BB241
:1035000085F845300120E8E76B6A0BB90120E4E754
:1035100005F1240000F0EEFC18B126B10120306066
:10352000DBE70120D9E70120D7E7F0B585B00192AC
:1035300090B10F460446C1B100F076FD064600BBCF
:10354000019B002B5ED04FF0500383F31188BFF333
:103550006F8FBFF34F8FFEE74FF0500383F3118857
:10356000BFF36F8FBFF34F8FFEE7036C002BE3D0E9
:103570004FF0500383F31188BFF36F8FBFF34F8F6A
:10358000FEE700263EE039462046FFF7BFFD013D3D
:10359000A563236923B901F04FFA012005B0F0BDFE
:1035A00004F1100000F0A6FC0028F4D04FF0E02356
:1035B0004FF08052C3F8042DBFF34F8FBFF36F8FCE
:1035C000E9E701F039FA0020E8E702A800F0D8FCAA
:1035D000012621E0002384F8443029E0002384F808
:1035E00045302BE02046FFF7A3FD00F063FB09E028
:1035F0002046FFF79DFD00F05DFB2046FFF73EFDF6
:1036000000283FD101F0F6F9A56B002DBBD1019B3D
:10361000002BD6D0002ED8D001F00EFA00F0B0FA70
:1036200001F0E8F994F844305BB2B3F1FF3FD1D038
:1036300094F845305BB2B3F1FF3FCFD001F0FCF915
:1036400001A902A800F0A8FC0028D1D12046FFF76C
:1036500015FD0028C6D0019904F1240000F016FCE5
:103660002046FFF765FD00F025FB0028CAD14FF08A
:10367000E0234FF08052C3F8042DBFF34F8FBFF308
:103680006F8FBFE7002089E70023072B0CD8074A7C
:1036900052F833200AB10133F7E7044A42F83310F5
:1036A00002EBC30358607047704700BFD405002089
:1036B00070B504460D46164601F09CF994F8443066
:1036C0005BB2B3F1FF3F0DD094F845305BB2B3F17C
:1036D000FF3F0BD001F0B0F9A36B5BB12046FFF7C1
:1036E00027FD70BD002384F84430EDE7002384F803
:1036F0004530EFE73246294604F1240000F0DEFBB6
:10370000ECE70000084B1B681B6823B9074B4FF020
:10371000FF321A607047044B1B68DB68DB685A682D
:10372000024B1A60704700BF18060020C40A002030
:103730002DE9F04780460D4617469946089EDDF86C
:1037400024A00A9C9200A521206B05F09FFC236B0E
:1037500007F18042013A03EB820727F007074FF099
:10376000000CBCF10F0F0BD815F80C2004EB0C0368
:1037700083F8342015F80C3013B10CF1010CF0E78C
:10378000002384F84330372E00D93726E662E664FA
:1037900000252565201DFFF728FC04F11800FFF720
:1037A00024FC2461C6F13806A6616462656584F86C
:1037B00058504A464146384601F0F0F82060BAF1C8
:1037C000000F01D0CAF80040BDE8F08738B50024EA
:1037D00007E004EB840293000E481844FFF7FAFB5D
:1037E0000134372CF5D90C4D2846FFF7F3FB0B4C71
:1037F0002046FFF7EFFB0A48FFF7ECFB0948FFF70D
:10380000E9FB0948FFF7E6FB084B1D60084B1C600D
:1038100038BD00BF20060020980A0020AC0A002016
:10382000CC0A0020F80A0020E40A00201806002034
:103830001C06002010B5044601F0DCF8224A13688B
:1038400001331360214B1B685BB1214B1B686BB9C3
:103850001E4B1B68DA6AE36A9A4207D81B4B1C604E
:1038600004E01A4B1C601368012B29D0194A136815
:10387000013313606364E06A174B1B68984201D9F7
:10388000154B186000EB8000211D144B03EB8000EA
:10389000FFF7AEFB01F0D0F80D4B1B687BB10B4B73
:1038A0001B68DA6AE36A9A4209D24FF0E0234FF0CC
:1038B0008052C3F8042DBFF34F8FBFF36F8F10BD3D
:1038C000FFF784FFD2E700BF800A00201406002023
:1038D000E00A0020900A0020940A00202006002020
:1038E00010B5044690F8593063B1012B11D0022B6A
:1038F0000ED04FF0500383F31188BFF36F8FBFF3E7
:103900004F8FFEE7006B00F0D3FF204600F0D0FFA2
:1039100010BD00F0CDFFFBE70F4B1B68D3B110B516
:1039200001F068F80D4BDB68DC68201DFFF784FBB5
:103930000B4A1368013B1360074A1368013B13608D
:1039400001F07AF82046FFF7CBFF034B1B68002BF2
:10395000E6D110BD704700BF840A0020F80A00209D
:10396000800A002008B5FFF7D7FF074B1B68012B23
:10397000F9D94FF0E0234FF08052C3F8042DBFF384
:103980004F8FBFF36F8FEEE72006002070B504461F
:103990000D46174B1E68174B18680430FFF74CFB99
:1039A000B4F1FF3F0DD03444124B1B685C60A6425B
:1039B00010D9114B18680F4B19680431FFF723FB1E
:1039C00070BD002DEFD00B4B196804310B48FFF789
:1039D0000FFBF5E70A4B1868064B19680431FFF72F
:1039E00012FB084B1B68A342EAD9064B1C60E7E7B1
:1039F0000C0B0020140600201C060020E40A002006
:103A000018060020C40A002030B587B00B9C7CB19A
:103A10000C9DB5B15C250495049D5C2D1AD04FF02A
:103A2000500383F31188BFF36F8FBFF34F8FFEE70F
:103A30004FF0500383F31188BFF36F8FBFF34F8FA5
:103A4000FEE74FF0500383F31188BFF36F8FBFF38E
:103A50004F8FFEE70C9D2C63022485F8594000240B
:103A60000394029505AC01940A9C0094FFF760FE54
:103A70000C98FFF7DFFE059807B030BD2DE9F04345
:103A800085B00746884614461E46900000F098FE12
:103A900000B381465C2000F093FE0546B0B1C0F84B
:103AA0003090E5B1002385F85930039302950D9BC2
:103AB00001930C9B00933346224641463846FFF75C
:103AC00037FE2846FFF7B6FE012005E0484600F025
:103AD000EFFEE6E74FF0FF3005B0BDE8F0834FF0B2
:103AE000FF30F9E710B588B000240594069407AAC2
:103AF00006A905A800F0E8FD059B0293069B01932B
:103B000000942346079A18491848FFF77DFF184B81
:103B1000186040B100F04CFB012806D0B0F1FF3F27
:103B200018D008B010BD0020F6E74FF0500383F323
:103B30001188BFF36F8FBFF34F8F0E4B4FF0FF32E3
:103B40001A600D4B01221A600C4B00221A6000F023
:103B5000EBFFE6E74FF0500383F31188BFF36F8F5D
:103B6000BFF34F8FFEE700BFB89E0008653900081D
:103B7000C00A0020C40A0020E00A00200C0B00202C
:103B8000024A136801331360704700BF8C0A00209B
:103B9000014B1868704700BF0C0B0020F8B53A4B7A
:103BA0001B68002B64D1394B1D6801351D60C5B9F8
:103BB000374B1B681B6843B14FF0500383F31188E8
:103BC000BFF36F8FBFF34F8FFEE7314A1168314B60
:103BD000186810601960304A136801331360FFF7EA
:103BE00091FD2E4B1B68AB4238D900272C4B1B682C
:103BF000DB6A03EB83039A002A4B9B58012B3CD9C9
:103C000001273AE00127224B1B681B6843B3204B76
:103C10001B68DB68DC6863689D4226D3261D30463E
:103C2000FFF70AFAA36A1BB104F11800FFF704FAC0
:103C3000E36A1D4A1268934201D91B4A136003EBE1
:103C400083039A00314617481044FFF7D1F9E26A1E
:103C5000134B1B68DB6A9A42D4D2D4E70027D2E721
:103C60000E4B4FF0FF321A60C0E70C4A1360BDE7FD
:103C70000E4A13680133136000270D4B1B6803B114
:103C800001273846F8BD00BF8C0A00200C0B00202D
:103C9000180600201C060020C80A0020C40A0020C4
:103CA0001406002020060020940A0020880A002024
:103CB000100B002038B5354B1B6843B94FF050034B
:103CC00083F31188BFF36F8FBFF34F8FFEE700F0D0
:103CD00091FE2E4B1A68013A1A601B68002B4FD1D7
:103CE0002B4B1B680BB900244BE00024294B1B68AD
:103CF0001BB3284BDB68DC6804F11800FFF79CF964
:103D0000251D2846FFF798F9E06A234B1B68984267
:103D100001D9214B186000EB800029461F4B03EBB3
:103D20008000FFF765F9E26A1D4B1B68DB6A9A4267
:103D3000DCD31C4B01221A60D8E70CB1FFF7E2FC80
:103D4000194B1C6884B9174B1C68D4B14FF0E023A1
:103D50004FF08052C3F8042DBFF34F8FBFF36F8F26
:103D600001240EE0013C07D0FFF718FF0028F9D02E
:103D70000C4B01221A60F5E70B4B00221A60E2E7B8
:103D8000002400F059FE204638BD00BF8C0A0020F8
:103D9000800A0020CC0A0020940A0020200600207F
:103DA00014060020100B0020880A002010B5A8B1CE
:103DB0000446104B1B6843B14FF0500383F3118846
:103DC000BFF36F8FBFF34F8FFEE7FFF7D9FE0021E0
:103DD0002046FFF7DBFDFFF76DFF48B94FF0E0230A
:103DE0004FF08052C3F8042DBFF34F8FBFF36F8F96
:103DF00010BD00BF8C0A00201F4B1B681BB11F4B5E
:103E000001221A6070471D4B00221A601C4B1B6870
:103E100003EB83018A001B498A585AB90BB1013B55
:103E2000F6E74FF0500383F31188BFF36F8FBFF3B2
:103E30004F8FFEE703EB830082000A44506840681E
:103E4000506003EB830C4FEA8C0208321144884225
:103E50000BD003EB830291000A4A0A445268D168EE
:103E6000094A1160064A1360704740686246910033
:103E7000044A0A445060ECE78C0A0020100B002032
:103E8000940A0020200600201406002058B110B526
:103E90000C46094A11681831FFF7B5F80121204690
:103EA000FFF774FD10BD4FF0500383F31188BFF38B
:103EB0006F8FBFF34F8FFEE71406002038B570B147
:103EC0000D4614460A4A11681831FFF791F80CB1F3
:103ED0004FF0FF3521462846FFF758FD38BD4FF01B
:103EE000500383F31188BFF36F8FBFF34F8FFEE74B
:103EF0001406002038B5C368DC6824B304F1180543
:103F00002846FFF799F8184B1B682BBB251D284640
:103F1000FFF792F8E06A154B1B68984201D9134BE2
:103F2000186000EB80002946114B03EB8000FFF77F
:103F30005FF8E26A0F4B1B68DB6A9A4211D90120D5
:103F40000D4B186038BD4FF0500383F31188BFF359
:103F50006F8FBFF34F8FFEE729460848FFF748F8F9
:103F6000E7E70020EEE700BF8C0A0020940A00205B
:103F70002006002014060020100B0020CC0A002090
:103F8000034B1B680360034B1B684360704700BF13
:103F9000C80A00200C0B0020F8B5C8B10C46054635
:103FA000F9B100F027FD1B4B19686B68C81A22682D
:103FB000B2F1FF3F26D0184E36682F68B74201D0C5
:103FC0008B4224D9824215D80023236001241AE0B1
:103FD0004FF0500383F31188BFF36F8FBFF34F8F00
:103FE000FEE74FF0500383F31188BFF36F8FBFF3E9
:103FF0004F8FFEE75B1A134423602846FFF7C0FF8C
:10400000002400E0002400F017FD2046F8BD012444
:10401000F9E700BF0C0B0020C80A0020014B012269
:104020001A607047100B0020054B1B6833B1054B1D
:104030001B680BB1002070470220704701207047B9
:10404000E00A00208C0A002000283BD038B5044646
:104050001E4B1B68834208D04FF0500383F3118836
:10406000BFF36F8FBFF34F8FFEE7036D43B94FF080
:10407000500383F31188BFF36F8FBFF34F8FFEE7B9
:10408000013B0365C16AC26C91421DD00BB1002097
:1040900038BD051D2846FEF7CFFFE06CE062C0F199
:1040A0003803A3610A4B1B68984201D9084B18607A
:1040B00000EB80002946074B03EB8000FEF798FFDA
:1040C0000120E5E7002070470020E1E7140600200A
:1040D000940A002020060020064B1A681368B3FAE1
:1040E00083F35B09036013B9D36818687047002035
:1040F000704700BF140B002008B541600061914279
:104100000CD8D21A83699A4201D3012008BD011D3F
:10411000094B1868FEF777FF0020F7E79A4201D2B3
:10412000994206D2011D054B1868FEF76CFF00206E
:10413000ECE70120EAE700BF180B0020140B002079
:1041400030B583B000F056FC114B1B681BB100F07A
:1041500073FC03B030BD0F4D2846FEF73BFF0E4CFD
:104160002046FEF737FF0D4B1D600D4B1C600023F2
:1041700000930C4B0C4A10210A20FFF763F8044B04
:1041800018600028E3D00949FFF77EFADFE700BF97
:10419000380C0020BC0B0020D00B0020140B00209A
:1041A000180B0020E80B00201C0B0020C09E00080C
:1041B00010B588B0FFF7C4FF124B1B68CBB10024C9
:1041C0000594069407AA06A905A800F089FA059B9C
:1041D0000293069B0193022300932346079A0A4900
:1041E0000A48FFF711FC0A4B186010B1012008B013
:1041F00010BD4FF0500383F31188BFF36F8FBFF3EF
:104200004F8FFEE7380C0020C89E0008F1440008DC
:104210003C0C0020B8B19C4603461848006858B3CF
:1042200000B585B000910192029305291CDCFFF7CF
:10423000FBFE022810D000231A4669460F4800688A
:10424000FFF749F815E04FF0500383F31188BFF3EF
:104250006F8FBFF34F8FFEE70023069A694607482A
:104260000068FFF738F804E0002362466946FFF76C
:10427000F6F805B05DF804FB00207047380C00200C
:1042800070B582B01A4B1B681A6852B3DB681E689F
:10429000DC68251D2846FEF7CFFE636A2046984756
:1042A000E369012BEED1A36933449E4207D26360D8
:1042B000246129460E4B1868FEF7A5FEE2E70021AF
:1042C00000910B4632462046FFF7A4FF0028D9D1C3
:1042D0004FF0500383F31188BFF36F8FBFF34F8FFD
:1042E000FEE7044A106802490860136002B070BD1E
:1042F000140B0020180B002038B50546FFF748FCCA
:104300000446074B1B68834205D800232B60044BEF
:104310001C60204638BDFFF7B3FF01232B60F6E792
:10432000E40B002070B582B006460D4614490968BA
:10433000C968CC68201DFEF77FFEE169012904D021
:10434000636A2046984702B070BDA16933462A4689
:1043500031442046FFF7D0FE0028F1D00021009123
:104360000B4632462046FFF755FF0028E8D14FF0B4
:10437000500383F31188BFF36F8FBFF34F8FFEE7B6
:10438000140B002070B582B006460C46FFF7F8FB10
:1043900001A8FFF7B1FF019B2BBB05460CB9B0424A
:1043A0001AD22CB1124B1B681C68B4FA84F464094D
:1043B0002246711B0F4B1868FFF77AF9FFF77AFC5A
:1043C00098B94FF0E0234FF08052C3F8042DBFF3AB
:1043D0004F8FBFF36F8F08E0FFF76CFC2946304624
:1043E000FFF7A0FF01E0FFF765FC02B070BD00BF62
:1043F000180B0020380C002010B588B002E0049B98
:10440000002B0FDA002204A9384B1868FFF78DF84B
:10441000002869D0049B002BF1DA07990698059BC8
:104420009847ECE7069C636913B1201DFEF704FE74
:1044300003A8FFF761FF049B092BE3D801A252F800
:1044400023F000BF6D4400086D4400086D4400086F
:1044500005440008B3440008D94400086D4400082E
:104460006D44000805440008B3440008059BA16999
:10447000024619442046FFF73FFE0028C2D0636A77
:1044800020469847E369012BBCD1A2690021009125
:104490000B46059802442046FFF7BCFE0028B1D128
:1044A0004FF0500383F31188BFF36F8FBFF34F8F2B
:1044B000FEE70599A16131B1034602460144204659
:1044C000FFF71AFE9EE74FF0500383F31188BFF306
:1044D0006F8FBFF34F8FFEE794F82C30002B91D1F4
:1044E000204600F0E5F98DE708B010BD380C00203B
:1044F00000B583B001A8FFF7EFFD0199FFF742FF78
:10450000FFF77AFFF6E70000EFF3058393B9EFF3C7
:10451000108393B90C4B1868022804D080B90A4B59
:1045200001221A607047EFF31183002BF6D06FF071
:10453000050070476FF0050070476FF00500704789
:104540004FF0FF30704700BF9C0E002008B5EFF31E
:104550000583B3B9EFF31083B3B90E4B1B68022B7D
:1045600008D0012B13D10B4B02221A60FFF7BAFAC5
:10457000002008BDEFF31182002AF2D06FF0050091
:10458000F7E76FF00500F4E76FF00500F1E74FF093
:10459000FF30EEE79C0E0020F0B587B000240494B5
:1045A000EFF30584002C43D1EFF31083002B3FD1B0
:1045B000334B1B68022B16D0002839D000238DF80E
:1045C000173062B3156895B1936903B918235C1E5F
:1045D000372C51D8546814F0010F4FD156694EB1A1
:1045E0004FEA960C08E0EFF311830BBBE4E70DF103
:1045F0001705E9E74FF0800C94682CB1D7685B2F62
:1046000002D9176907B1B6B914B14FF0FF340CE005
:10461000D46894B914699CB14FF0FF3405E00024CC
:1046200018234FF0800C0DF11705012C0AD0ACB106
:10463000049807B0F0BD0124F7E74FF0FF34F4E72A
:104640000024F2E7146992680292019400930B46E9
:1046500062462946FFF7D8F90490E9E704AA0192D7
:1046600000930B461FFA8CF22946FFF707FA012840
:10467000DED000230493DBE70020DAE70020D8E750
:104680009C0E002008B5EFF30583A3B9EFF3108368
:10469000A3B90C4B1B68022B02D040B9002008BD07
:1046A000EFF31183002BF8D06FF00500F7E7FFF769
:1046B0007DFB0020F3E76FF00500F0E76FF00500E9
:1046C000EDE700BF9C0E0020034B0360034B0B6023
:1046D00080231360704700BF400E0020400C002074
:1046E000034B0360034B0B604FF480731360704700
:1046F000A0120020A00E0020124A12F0070F1ED0B8
:10470000D11D21F00701C1F5406313440A460E484C
:104710000260002141601344083B23F007030B486B
:10472000036059601960991A51601360084B196051
:10473000084B1960084B4FF000421A6070474FF465
:104740004063E4E7001300200C1F0020FC1200204F
:10475000081F0020041F0020001F0020164B1A46CF
:104760001B688342FBD3516802EB010C844509D0DE
:10477000416800EB010C634509D00360904219D0F9
:10478000106070474068014451601046F0E710B473
:104790000A4C2468A3420BD05B681944416013683B
:1047A0001B680360904200D010605DF8044B7047B6
:1047B0000460F7E7704700BF0C1F0020FC120020C8
:1047C00070B50546FFF7DCF9344B1B68A3B1344BD9
:1047D0001B681D424AD135B1083515F0070F02D0CC
:1047E00025F007050835002D42D02E4B1B68AB4243
:1047F0004DD32D4A146804E0FFF77EFFE7E7224619
:104800001C466368AB4202D22368002BF7D1234BCE
:104810001B68A3423DD0166808362368136063689E
:104820005B1B102B10D9601910F0070F08D04FF048
:10483000500383F31188BFF36F8FBFF34F8FFEE7F1
:1048400043606560FFF78AFF626816490B689B1A30
:104850000B60164909688B4201D214490B60104B5A
:104860001B68134363600023236002E0002600E01E
:104870000026FFF71FFA16F0070F0CD04FF0500379
:1048800083F31188BFF36F8FBFF34F8FFEE70026CE
:10489000EFE70026EDE7304670BD00BFFC120020B8
:1048A000001F0020041F00200C1F0020081F0020F4
:1048B00080B338B50446A0F1080550F8043C164A08
:1048C0001268134208D14FF0500383F31188BFF3ED
:1048D0006F8FBFF34F8FFEE750F8081C41B14FF0C8
:1048E000500383F31188BFF36F8FBFF34F8FFEE741
:1048F00023EA020340F8043CFFF742F954F8041C91
:10490000064A13680B4413602846FFF727FFFFF79A
:10491000D1F938BD704700BF001F0020041F0020E0
:1049200082B0002301930D4B1B68B3F1FF3F08D009
:104930004FF0500383F31188BFF36F8FBFF34F8F96
:10494000FEE74FF0500383F31188BFF36F8FBFF37F
:104950004F8F019B002BFCD002B070470C00002051
:1049600008480068006880F308884FF0000080F372
:10497000148862B661B6BFF34F8FBFF36F8F00DF4D
:1049800000BF000008ED00E0DFF80C00016841F412
:10499000700101607047000088ED00E04FF0807307
:1049A00040F8043C21F0010140F8081C054B40F898
:1049B0000C3C40F8202C6FF0020340F8243C4438B3
:1049C000704700BF214900080000000000000000FF
:1049D000074B19680868B0E8F04F80F30988BFF307
:1049E0006F8F4FF0000080F311887047AFF30080A5
:1049F000140600204FF0500383F31188BFF36F8F2C
:104A0000BFF34F8F0B4A136801331360012B00D0A3
:104A100070474FF0E023D3F8043D13F0FF0FF7D0B9
:104A20004FF0500383F31188BFF36F8FBFF34F8FA5
:104A3000FEE700BF0C000020094B1B6843B94FF094
:104A4000500383F31188BFF36F8FBFF34F8FFEE7DF
:104A5000013B034A13600BB983F31188704700BF11
:104A60000C0000200000000000000000000000001A
:104A7000EFF30980BFF36F8F154B1A681EF0100F0C
:104A800008BF20ED108A20E9F04F10602DE90900E1
:104A90004FF0500080F31188BFF34F8FBFF36F8F3B
:104AA000FFF7AAF94FF0000080F3118809BC1968DC
:104AB0000868B0E8F04F1EF0100F08BFB0EC108A85
:104AC00080F30988BFF36F8F704700BFAFF300809A
:104AD0001406002008B54FF0500383F31188BFF38C
:104AE0006F8FBFF34F8FFFF759F828B14FF0E023D6
:104AF0004FF08052C3F8042D002383F3118808BDC2
:104B00004FF0E022002313619361054B1B680549B8
:104B1000A1FB03139B09013B5361072313617047FA
:104B200008000020D34D62104FF0E023D3F8002D91
:104B30003D4B9A421CD04FF0E023D3F8002D3B4B65
:104B40009A421ED030B583B0394B1A78D2B2019256
:104B5000FF221A701B78DBB28DF803309DF803300A
:104B600003F05003334A1370334B07221A601BE0E3
:104B70004FF0500383F31188BFF36F8FBFF34F8F54
:104B8000FEE74FF0500383F31188BFF36F8FBFF33D
:104B90004F8FFEE7284A1368013B13609DF80330EE
:104BA0005B00DBB28DF803309DF8033013F0800F0B
:104BB000F0D1214B1B68032B08D04FF0500383F337
:104BC0001188BFF36F8FBFF34F8FFEE71B021A4AA6
:104BD000136003F4E0631360019BDBB2144A1370AB
:104BE0004FF0E024D4F8203D43F47003C4F8203D96
:104BF000D4F8203D43F07043C4F8203DFFF780FF18
:104C000000250E4B1D60FFF7BFFED4F8343F43F084
:104C10004043C4F8343FFFF7A3FEFFF7EDF8FFF77A
:104C20007FFE284603B030BD71C20F4170C20F41F4
:104C300000E400E0141F0020181F00200C000020DA
:104C4000EFF305830F2B0FD9114A9B5CDBB2114A9E
:104C500012789A4208D94FF0500383F31188BFF3BA
:104C60006F8FBFF34F8FFEE74FF0E023D3F80C3D7B
:104C700003F4E063084A1268934208D94FF05003E6
:104C800083F31188BFF36F8FBFF34F8FFEE7704739
:104C9000F0E300E0141F0020181F002008B5034BAC
:104CA00018601846FDF718FC08BD00BF301F002033
:104CB00008B5012202214FF09040FDF701FB0A20C8
:104CC00000F06CF8002202214FF09040FDF7F8FA56
:104CD0000C21024B1868FDF7ABFF08BD301F002008
:104CE000037F082B00D0704710B504461E4B1B787D
:104CF00043B90C21FDF73CFD1C4B18601A4B0122F7
:104D00001A7010BD0C21FDF733FD194B1860236894
:104D100000225A62154B1B68984217D9C01A154BCE
:104D20001860144B1868FBF717FD0DA3D3E9002397
:104D3000FBF7A6FA0022104BFBF7A2FAFBF786FD61
:104D40000E4B1860084B00221A70DAE79842E8D23E
:104D5000C01A00F57F40FF30064B1860E1E700BF46
:104D60009CC420B07268A13F241F0020281F00208F
:104D70002C1F00201C1F00200000E03F201F0020EF
:104D8000044B1B781BB9044BB3F9000070474FF07C
:104D9000FF307047241F0020201F0020034B1A689B
:104DA00000235362536A8342FCD3704758040020A7
:104DB0000220704702207047F8B510B30C461D461C
:104DC000034601B30DB38668016801B3C06808B932
:104DD000964214D9B0421CD2361A0144B2420BD2C8
:104DE0001044D86016464FF0FF373246204604F094
:104DF00025F92E603846F8BD0027DF60F5E700276B
:104E0000F3E70927F6E70927F4E70927F2E70E2772
:104E1000F0E70927EEE770B510B31C46034609B367
:104E200014B38568006808B3DE680EB9954215D9D9
:104E3000AE421DD2AD1B3044AA420CD21644DE60F5
:104E400015464FF0FF36954214D32A4604F0F6F883
:104E50002560304670BD0026DE60F4E70026F2E7EC
:104E60000926F6E70926F4E70926F2E70E26F0E719
:104E70000926EEE70C26ECE730B5054670B303884B
:104E80004BB3013B9AB24FF0000E02E001331FFA20
:104E900083FE964513D20EEB0203C3F34F036C68F7
:104EA00003EB430C04EB8C0034F82C408C4215D0FF
:104EB000ECD913B1013B9AB2EBE71A46E9E70CD102
:104EC0006A680EEB4E0302EB830032F823308B420C
:104ED00004D0002002E0002000E0002030BD0000EF
:104EE00000286BD030B584464568002D68D0002A74
:104EF00068D0C07800F00F0002280ED0032825D01B
:104F0000012801D0092030BD00295DD12879107415
:104F100028681060A868906031E09CF80200884220
:104F200054D931B9287A1074286810600120906033
:104F300025E0687A1074686820B12C6901F1FF3EA1
:104F40000EFB04001060E868906018E000209CF8F8
:104F5000024084420AD900EB400405EB840494F833
:104F600004E08E4503D00130C0B2F0E70024002CED
:104F70002ED06079107420681060A0689060DCF812
:104F8000080000B14BB1134B5361134B93610023E5
:104F900053600020D0605174B5E7436853B153614A
:104FA000DCF808309B683BB19361DCF808301B6883
:104FB0005360EEE7094BF2E7094BF5E70520704730
:104FC0000520A0E709209EE70E209CE70E209AE727
:104FD0000E2098E7B94D0008174E0008B14D0008A3
:104FE000B54D0008C3B2192B03D8034B53F820006A
:104FF00070470248704700BFD09E00084700040673
:10500000AAB130B589B01C461546002300930C9B0D
:1050100001AAFFF765FF40B9039BA34209D16B4684
:105020002246294601A8069CA04709B030BD0920A8
:1050300070470B20F9E730B589B015461C460023B0
:1050400000930C9B01AAFFF74BFF40B9039BA342BF
:1050500007D16B462246294601A8079CA04709B004
:1050600030BD0B20FBE730B589B015461C46012347
:1050700001AAFFF735FF034658B9019A32B1039AE6
:1050800032B135B1AA4204D00B2302E0092300E07B
:10509000092304B1237013B9019809B030BD002071
:1050A000FBE70B7991F805C08A79022B00D0704795
:1050B00012B1C3789342FAD180F802C0F7E7A8B1E1
:1050C0008446407CA0B9A9B1022A15D1B3B110B56C
:1050D000DCF8044008884FF47A7E0EFB00F0A060F4
:1050E0000020E0606046FFF796FE10BD0920704783
:1050F0000920704709207047092070470920704730
:105100002DE9F04387B0DDF84080DDF84C900028B1
:105110006AD00D4616461F460446002967D0002A6D
:1051200068D0B8F1000F68D0B9F1000F68D02C2218
:10513000002103F0ABFFE770BDF83830A380266292
:10514000BDF83C304FF47A7202FB03F3E3600123B5
:10515000009302230DF1160200212846FFF750FFAD
:1051600038BBBDF816304FF47A7202FB03F3A3602C
:105170002461254B6361254BA36104F11003AB60EF
:10518000E268A3689A4200D9E360214B029301943C
:105190000023009340F2FF73BDF84820BDF844108F
:1051A000404603F0E9FB054658B1284607B0BDE884
:1051B000F083169B13B12B88169A13606FF00B05C2
:1051C000F3E7C4F824900023019301220092BDF874
:1051D0005420BDF85010484603F008FCA062002897
:1051E000E3D14FF0FF35E0E74FF0FF35DDE74FF05B
:1051F000FF35DAE74FF0FF35D7E74FF0FF35D4E75B
:105200004FF0FF35D1E700BFB94D0008BF5000088F
:10521000A350000870B504460E4690F90050C368CC
:10522000934201D99B1A00E00023E36035B1A268E4
:105230009AB11BB194F90130AB420ED0A36A5D71F3
:10524000A16A606A03F0F5FB2DB9A38813F4807F8F
:105250000FD0052501E0A368E3606570A07890B1E8
:10526000802823D007D9812828D0822828D101205E
:1052700007E07F25F1E701281BD002281CD1002080
:1052800004250023A370A38813F4805F1AD0226A38
:1052900032B3917811F0040F24D1D27812F0080FB4
:1052A00022D112F0100F21D100220CE000207F2526
:1052B000E7E700200525E4E70020E2E70220E0E739
:1052C0000020DEE70022114613F4005F14D0226AAA
:1052D00072B1D26872B112781A400ED001220CE07D
:1052E0000122F0E70122EEE70122ECE70122EAE7E2
:1052F0000022F1E70022EFE70022052D06D013F48B
:10530000004F0BD1257006B1357070BD09B9002A68
:10531000F5D013F4804F09D00425F3E77F2DF1D1A8
:105320000029EFD1002AEDD10525EBE77F25E9E73C
:105330000B79012B00D0704791F9053043700123A0
:10534000C360F8E72DE9F04389B0002859D00C4636
:1053500016461F46054690F80890894554D903B172
:1053600082BB6B684FEA041C03EB041003F80C606B
:105370004FF47A7307FB03F38360FF22427000222D
:10538000C2603EB333B306F5E0620123837024E0CC
:105390000CF1010C5FFA8CFCE14517D96B6803EB4B
:1053A0000C1E9EE80F000DF1200E0EE90F00A44523
:1053B000EED0002AECD09DF81030B342E8D16FF067
:1053C0000B08E5E74FF0000CE046E5E7B8F1000F09
:1053D00013D1C6E7002282608270A98B6B68634498
:1053E00021440B48029001930023009340F2FF7385
:1053F00089B2A86903F0C0FA8046404609B0BDE80A
:10540000F0834FF0FF38F8E74FF0FF38F5E700BFC3
:1054100031530008F8B504464068DCB10D46174624
:105420001E46C9B1617CC9B1037A994218D8042AD1
:1054300018D1CEB12A68013993B2C2F30742C9B27A
:10544000FFF780FF90B933463A4629462046FFF7DA
:10545000E2FC04E0092002E0092000E00920F8BD98
:105460000920FCE70920FAE70920F8E70820F6E719
:105470002DE9F04784B00C9FDDF834A0DDF83C80C6
:1054800000285AD0894615461C460646002957D0A2
:10549000002A58D0002F59D0BAF1000F59D030222D
:1054A000002103F0F3FDC6F800907560C6F818A05F
:1054B000BDF83830B383BB78A34201D8013BDCB2DE
:1054C000347200250CE0B8F1000F02D03B88C8F818
:1054D00000306FF00B032CE013F10C0F29D125469F
:1054E000337AAB421DD96C1CE4B201230093042330
:1054F00003AA21463846FFF783FD0028E3D1039A2B
:1055000093B2C2F3074229463046FFF71BFF03461A
:105510000028E4D0B8F1000FDED03A88C8F80020A7
:10552000DAE736620C4B73620C4BB3622036BE6016
:105530000023184604B0BDE8F0874FF0FF33F8E7CA
:105540004FF0FF33F5E74FF0FF33F2E74FF0FF3353
:10555000EFE74FF0FF33ECE7B94D000815540008B2
:105560002DE9F04F83B004460F4619B191464369C7
:10557000002B52D1002F67D16369002B66D14FF009
:105580000108C24667E00123AB704B460022EA6087
:10559000AA78022A2DD0AB78022B01D04FF0000A56
:1055A00095F90130052B01D04FF000080136F6B215
:1055B000237AB3424FD96568B34605EB0615AB783D
:1055C000002BF3D0EA6892B195F9012052B9022B71
:1055D000D9D1009648F230131C220121206800F036
:1055E00083F9D0E70223AB7000236B60CEE74B4614
:1055F000CEE76A6813446B60AA689342CBD3CDF8B8
:1056000000B048F230131B220121206800F06CF931
:10561000FF236B700323AB70BDE700264FF001083A
:10562000C246C5E70132D2B2237A934210D96368E9
:1056300003EB0213FF2159700021D96099780029EA
:10564000F0D001219970EDE70022EDE70022EBE7B1
:105650004FF00008C246E36813B9BAF1000F07D152
:10566000C4F80CA0C4F81080676103B0BDE8F08FE7
:10567000002500952B461B222946206800F034F9AE
:1056800000952B461C222946206800F02DF9E7E7FB
:105690008446C0B1407CC0B9C9B1032A19D9D3B17D
:1056A000DCF80400426A5AB14FF0000C90F8282050
:1056B000803242EA0C020A6004221A60002070471D
:1056C0004FF0004CF2E7092070470920704709208D
:1056D0007047092070470920704780B3844681B322
:1056E0008BB3032A01D8407C78BB82B310B5DCF8B9
:1056F000040090F81CE0BEF1010F2AD99CF811407B
:1057000094B190F82020944225D8427F121B94B285
:10571000002A10DB724520DA806950F832200A60D6
:1057200004221A60002010BD90F820200A70012287
:105730001A600020F7E70EEB040212B2ECE7092032
:1057400070470920704709207047092070470920D9
:1057500070470920E7E71920E5E70920E3E78446D9
:1057600070B1407C70B979B1012A0FD183B10A7848
:1057700082B9DCF8042082F8200001221A60704708
:105780000920704709207047092070470920704799
:10579000092070470F2070472DE9F04F85B09DF824
:1057A00038B0DDF83C90DDF844A09DF84880002832
:1057B00074D00D4616461F460446002A71D0002BB1
:1057C0005ED0B9F1000F6FD0002D70D0B8F1000F8E
:1057D00070D018F0800F70D1BAF1000F70D0502245
:1057E0000021204603F052FC656100230122194686
:1057F0003046FFF738FCE060002847D000210170F8
:10580000A76184F81CB001230093042303AA48462F
:10581000FFF7F6FB024618B92E4B03990B403BB13C
:10582000139B1BB1B9F8003013990B60002A4AD1C1
:10583000039BDB43DB0F63622463274B6363274BCC
:10584000A36304F13003C9F8083084F828800023EA
:1058500001930822009208F18002BDF8401028460A
:1058600003F0C4F8E06288B324641D4B63641D4BED
:10587000A3644034CAF80840002005B0BDE8F08FAA
:10588000BBF1010F9DD94FF0FF30F6E7139B13B129
:105890003388139A13606FF00B00EEE74FF0FF3080
:1058A000EBE74FF0FF30E8E74FF0FF30E5E74FF070
:1058B000FF30E2E74FF0FF30DFE74FF0FF30DCE78B
:1058C0004FF0FF30D9E76FF00B00D6E74FF0FF3015
:1058D000D3E700BF00F8FF7F91560008174E00087D
:1058E000DB5600085F57000800285DD030B58446BD
:1058F000D40802F007050120A840C0B24F2A04D9FD
:105900000392012005244FF4C24325461CF804E00D
:105910000EEA0004A9B3002C45D143EA0262DCF888
:105920001430EFF310841C6372B669B31CF80530B1
:1059300018430CF805009CF81C1001292ED99CF87E
:105940001D00431CDBB2994200D800239CF81E10B6
:10595000994220D0DCF8181041F83020DCF81820EB
:1059600002EBC002039951608CF81D309CF8202096
:105970009CF81C30013B9A4210DA01328CF820204E
:105980000CE084B10023C8E71CF8053023EA0000CE
:105990000CF80500CFE701238CF81F30DCF8143039
:1059A0001B6B83F3108830BD7047F0B583B004469D
:1059B0000F4643695E8A058AB54217D07540068254
:1059C00040F201131D422CD115F0020F35D115F014
:1059D000040F3DD115F0080F45D115F0800F4DD1C2
:1059E00015F4007F55D115F4006F5DD1637903B1D3
:1059F000012362880AB143F0100322890AB143F0FF
:105A00008003E268137057B1227F012A07D9A57F6E
:105A1000627FAA4203D0E26A1269002A4ED003B024
:105A2000F0BD1E424FF0000300934FF0010214BF7F
:105A300011461946FFF758FFC6E70023009348F2C6
:105A400020130722C6F340012046FFF74DFFBEE7B3
:105A50000023009348F240131222C6F3800120462F
:105A6000FFF742FFB6E70023009348F21013142219
:105A7000C6F3C0012046FFF737FFAEE700230093CF
:105A80004FF401431522C6F3C0112046FFF72CFF47
:105A9000A6E70023009348F220130622C6F3402114
:105AA0002046FFF721FF9EE70023009313231A46A9
:105AB000C6F3C0212046FFF717FF97E7A16951F809
:105AC000352042EA034341F83530E36AA26902EB2C
:105AD000C50052F835104268C3F80510C3F8092014
